:1000000012C021C020C01FC01EC01DC01CC01BC00C
:100010001AC0E5C018C017C016C015C014C013C060
:1000200012C011C010C011241FBECFE5D4E0DEBF46
:10003000CDBF11E0A0E6B0E001C01D92AE33B10724
:10004000E1F708D0D7C1DCCF0895089512BE85E04E
:1000500083BF089570D0F89481E087BB9FEF91BB78
:1000600084BB8FE590E063EC70E040E0A5D086E5CE
:1000700090E065EF70E041E09FD088E490E061E9B6
:1000800070E042E099D012BE85E083BF8FD0FFCFF1
:100090000F931F9301E085B3802785BB10E084E0B8
:1000A00090E051D01F5F1A30D1F7F5CF1F9311E0C8
:1000B00088B3812788BB84E090E045D0F9CF1F93B7
:1000C00010E012BB1F5F83E090E03DD0FACF40917B
:1000D0003C01ECE2F1E020E030E061E070E08081A2
:1000E0009181009769F0019791838083892B41F476
:1000F000CB01022E02C0880F991F0A94E2F7482B09
:100100002F5F3F4F34962330310549F740933C0130
:1001100040FF02C080E009C041FF02C081E005C08D
:1001200042FD02C083E001C082E08093F6000895A2
:1001300010923D01FFCF10923C0183E08093F600C6
:10014000809329010895AC01009779F1F894E0912A
:100150002901F0E081E090E00E2E02C0880F991F87
:100160000A94E2F7809520913C01822380933C0120
:10017000EE0FFF1FEE0FFF1FE45DFE4F5183408324
:10018000789480FF03C080E090E00CC081FF03C042
:1001900081E090E007C082FD03C083E090E002C0F0
:1001A00082E090E08093F6007BD008951092F600F4
:1001B0001092290109D108951F93142F443068F437
:1001C000E2D081E090E002C0880F991F1A95E2F713
:1001D00020913C01282B20933C011F9108951F92F0
:1001E0000F920FB60F9211242F933F934F935F936B
:1001F0006F937F938F939F93AF93BF93EF93FF93EF
:10020000F8948BED82BF2F923F924F925F926F9244
:100210007F928F929F92AF92BF92CF92DF92EF9296
:10022000FF920F931F93CF93DF9351DF9ED08DB733
:100230009EB7E0913A01F0913B01918380838091D8
:10024000F6008093290191D0E0913A01F0913B01B1
:10025000808191819EBF8DBFDF91CF911F910F91C2
:10026000FF90EF90DF90CF90BF90AF909F908F90D6
:100270007F906F905F904F903F902F907894FF9178
:10028000EF91BF91AF919F918F917F916F915F910E
:100290004F913F912F910F900FBE0F901F90189587
:1002A000F8949091F60080912901981709F45BC0A9
:1002B0001F920F920FB60F9211242F933F934F93DB
:1002C0005F936F937F938F939F93AF93BF93EF93BE
:1002D000FF932F923F924F925F926F927F928F92F5
:1002E0009F92AF92BF92CF92DF92EF92FF920F93C5
:1002F0001F93CF93DF9339D08DB79EB7E0913A012A
:10030000F0913B01918380838091F60080932901D5
:100310002CD0E0913A01F0913B01808191819EBF08
:100320008DBFDF91CF911F910F91FF90EF90DF90E4
:10033000CF90BF90AF909F908F907F906F905F9085
:100340004F903F902F90FF91EF91BF91AF919F9170
:100350008F917F916F915F914F913F912F910F906E
:100360000FBE0F901F90789408958091290190E01E
:10037000880F991F880F991F865D9E4F90933B01B0
:1003800080933A010895FB01808392931292129216
:1003900080E88293CF010197FC0120E02083319710
:1003A0002F5F2E31D9F7E42FF0E0EE0FFF1FEE0F95
:1003B000FF1FDF01A65DBE4F4E978D939C93E45DBA
:1003C000FE4F11821082089588E990E068E271E0A2
:1003D00043E0D9DF1092F6001092290180912A01A2
:1003E00090912B0181969EBF8DBF89B7816089BF97
:0803F00078940895F894FFCF02
:00000001FF
