:0E034F00758901758CF9758AFED2AFD2A9228C
:10033E00E4F56812034F05807FB87E0B12024580EC
:01034E00F5B9
:0B03690005907F287E0012024580F501
:0B03740005A07F287E0012024580F5E6
:1002990012037F756B00756C00756D08E4F56E7B54
:1002A900FF7A03793E1202E0756B00756C00756D7B
:1002B9001C756E017BFF7A0379691202E0756B0088
:1002C900756C00756D30756E027BFF7A0379741257
:0702D90002E012000380FEA9
:1002E000E56ED39403501E856B72856C73856D74B7
:1002F000856E7512000EAF6E7401A807088002C3E8
:0603000033D8FC42532239
:08000300E4F552F55102030679
:10024500E4FCEF4E604DC2AFAD517401A8050880C6
:1002550002C333D8FCF45253E55175F003A4244688
:10026500F8A60608A607D2AFE4FCFDAF0574017E2B
:1002750000A807088005C333CE33CED8F9FFEF5564
:1002850053700B0DBD00010CED64034C70DD8D52F8
:03029500120194BF
:010298002243
:1001ED00E4FDED75F003A42446F8E6FE08E64E6046
:1001FD0022ED75F003A42446F808E61618700116D2
:10020D00E6FE08E64E700C04A805088002C333D83C
:10021D00FC42530DBD03CBE4FD74017E00A805081F
:10022D008005C333CE33CED8F9FFE553FBEF5B70BA
:07023D00040DBD03E48D5226
:010244002297
:07038900E4F544054480FC8B
:0A037F00E4F5537552037551032293
:10000E008B6F8A708971AF01EFAB72AA73A97412EC
:10001E00032CE570FFAB720574E57470020573F97D
:10002E00AA73EF12032CAB720574E574700205739C
:10003E00F9AA73E412032CAB720574E57470020511
:10004E0073F9AA73E412032CAB720574E574700293
:10005E000573F9AA73E412032CAB720574E5747080
:10006E00020573F9AA73E412032CAB720574E574DE
:10007E0070020573F9AA73E412032CAB720574E5D2
:10008E007470020573F9AA73E412032CAB72057433
:10009E00E57470020573F9AA73740112032CAB7226
:1000AE000574E57470020573F9AA73740212032CB9
:1000BE00AB720574E57470020573F9AA73740312BA
:1000CE00032CAB720574E57470020573F9AA737490
:1000DE000412032CAB720574E57470020573F9AA51
:1000EE0073740512032CAB720574E57470020573FC
:1000FE00F9AA73740612032CAB720574E5747002C0
:10010E000573F9AA73740712032CE57575F003A431
:10011E002445F8A674E57575F003A42446F8E4F6B4
:03012E0008F622AE
:100306007572007573007574547575037BFF7A03F7
:10031600798912000EE55275F003A42445F8E62407
:06032600F3F581D28C22E8
:10019400C2AFE5526551604EC0E0C0F0C083C0827A
:1001A400C0D0C000C001C002C003C004C005C00666
:1001B400C007E55175F003A42445F8A68185525182
:1001C400E55175F003A42445F8E6F581D007D0067F
:1001D400D005D004D003D002D001D000D0D0D0823A
:0901E400D083D0F0D0E0D2AF22AC
:03000B00020131BE
:10013100C0E0C0F0C083C082C0D075D000C2AF752E
:100141008CFE758A00C28CC000C001C002C003C011
:1001510004C005C006C0071201EDE55175F003A406
:100161002445F8A681855251E55175F003A4244533
:10017100F8E6F581D007D006D005D004D003D0022F
:10018100D001D000D28CD2AFD0D0D082D083D0F0E9
:03019100D0E03289
:0300000002035D9B
:0C035D00787FE4F6D8FD758175020299E6
:10032C00BB010689828A83F0225002F722BBFE01B0
:02033C00F322AA
:00000001FF
